{
    "_format": "hh-sol-artifact-1",
    "contractName": "SnapshotERC20SendAction",
    "sourceName": "contracts/SnapshotERC20SendAction.sol",
    "abi": [
        {
            "inputs": [],
            "stateMutability": "nonpayable",
            "type": "constructor"
        },
        {
            "inputs": [
                {
                    "internalType": "address",
                    "name": "target",
                    "type": "address"
                }
            ],
            "name": "AddressEmptyCode",
            "type": "error"
        },
        {
            "inputs": [
                {
                    "internalType": "address",
                    "name": "account",
                    "type": "address"
                }
            ],
            "name": "AddressInsufficientBalance",
            "type": "error"
        },
        {
            "inputs": [],
            "name": "FailedInnerCall",
            "type": "error"
        },
        {
            "inputs": [
                {
                    "internalType": "string[]",
                    "name": "optionsPassed",
                    "type": "string[]"
                },
                {
                    "internalType": "uint256[]",
                    "name": "voteWeightsPassed",
                    "type": "uint256[]"
                }
            ],
            "name": "OptionsVoteWeightsLengthMismatch",
            "type": "error"
        },
        {
            "inputs": [
                {
                    "internalType": "address",
                    "name": "token",
                    "type": "address"
                }
            ],
            "name": "SafeERC20FailedOperation",
            "type": "error"
        },
        {
            "inputs": [
                {
                    "internalType": "uint256",
                    "name": "value",
                    "type": "uint256"
                },
                {
                    "internalType": "uint256",
                    "name": "length",
                    "type": "uint256"
                }
            ],
            "name": "StringsInsufficientHexLength",
            "type": "error"
        },
        {
            "inputs": [
                {
                    "internalType": "uint256",
                    "name": "value",
                    "type": "uint256"
                },
                {
                    "internalType": "uint256",
                    "name": "length",
                    "type": "uint256"
                }
            ],
            "name": "StringsInsufficientHexLength",
            "type": "error"
        },
        {
            "inputs": [],
            "name": "NATIVE_ETH",
            "outputs": [
                {
                    "internalType": "address",
                    "name": "",
                    "type": "address"
                }
            ],
            "stateMutability": "view",
            "type": "function"
        },
        {
            "inputs": [],
            "name": "automate",
            "outputs": [
                {
                    "internalType": "contract IAutomate",
                    "name": "",
                    "type": "address"
                }
            ],
            "stateMutability": "view",
            "type": "function"
        },
        {
            "inputs": [],
            "name": "automateAddress",
            "outputs": [
                {
                    "internalType": "address",
                    "name": "",
                    "type": "address"
                }
            ],
            "stateMutability": "view",
            "type": "function"
        },
        {
            "inputs": [],
            "name": "dedicatedMsgSender",
            "outputs": [
                {
                    "internalType": "address",
                    "name": "",
                    "type": "address"
                }
            ],
            "stateMutability": "view",
            "type": "function"
        },
        {
            "inputs": [
                {
                    "internalType": "address",
                    "name": "tokenAddress",
                    "type": "address"
                },
                {
                    "internalType": "address",
                    "name": "receiver",
                    "type": "address"
                },
                {
                    "internalType": "address",
                    "name": "transferFrom",
                    "type": "address"
                },
                {
                    "internalType": "uint256[]",
                    "name": "tokenAmounts",
                    "type": "uint256[]"
                }
            ],
            "name": "encodeActionData",
            "outputs": [
                {
                    "internalType": "bytes",
                    "name": "",
                    "type": "bytes"
                }
            ],
            "stateMutability": "pure",
            "type": "function"
        },
        {
            "inputs": [
                {
                    "internalType": "string",
                    "name": "snapshotProposalUrl",
                    "type": "string"
                },
                {
                    "internalType": "string[]",
                    "name": "options",
                    "type": "string[]"
                },
                {
                    "internalType": "uint256[]",
                    "name": "voteWeights",
                    "type": "uint256[]"
                },
                {
                    "internalType": "uint256",
                    "name": "liveness",
                    "type": "uint256"
                },
                {
                    "internalType": "bytes",
                    "name": "data",
                    "type": "bytes"
                },
                {
                    "internalType": "address",
                    "name": "bondToken",
                    "type": "address"
                },
                {
                    "internalType": "uint256",
                    "name": "bondTokenAmount",
                    "type": "uint256"
                }
            ],
            "name": "formatClaim",
            "outputs": [
                {
                    "internalType": "string",
                    "name": "",
                    "type": "string"
                }
            ],
            "stateMutability": "view",
            "type": "function"
        },
        {
            "inputs": [],
            "name": "fundsOwner",
            "outputs": [
                {
                    "internalType": "address",
                    "name": "",
                    "type": "address"
                }
            ],
            "stateMutability": "view",
            "type": "function"
        },
        {
            "inputs": [],
            "name": "oov3",
            "outputs": [
                {
                    "internalType": "contract OptimisticOracleV3Interface",
                    "name": "",
                    "type": "address"
                }
            ],
            "stateMutability": "view",
            "type": "function"
        },
        {
            "inputs": [
                {
                    "internalType": "string",
                    "name": "snapshotProposalUrl",
                    "type": "string"
                },
                {
                    "internalType": "string[]",
                    "name": "options",
                    "type": "string[]"
                },
                {
                    "internalType": "uint256[]",
                    "name": "voteWeights",
                    "type": "uint256[]"
                },
                {
                    "internalType": "address",
                    "name": "bondToken",
                    "type": "address"
                },
                {
                    "internalType": "uint256",
                    "name": "bondTokenAmount",
                    "type": "uint256"
                },
                {
                    "internalType": "uint256",
                    "name": "liveness",
                    "type": "uint256"
                },
                {
                    "internalType": "address",
                    "name": "gasPaymentToken",
                    "type": "address"
                },
                {
                    "internalType": "uint256",
                    "name": "gasPaymentAmount",
                    "type": "uint256"
                },
                {
                    "internalType": "bytes",
                    "name": "data",
                    "type": "bytes"
                }
            ],
            "name": "postSnapshotResultsAndScheduleExec",
            "outputs": [],
            "stateMutability": "payable",
            "type": "function"
        },
        {
            "inputs": [],
            "name": "request",
            "outputs": [
                {
                    "internalType": "bytes32",
                    "name": "gelatoTaskId",
                    "type": "bytes32"
                },
                {
                    "internalType": "bytes32",
                    "name": "assertionId",
                    "type": "bytes32"
                },
                {
                    "internalType": "string",
                    "name": "snapshotProposalUrl",
                    "type": "string"
                },
                {
                    "internalType": "address",
                    "name": "bondToken",
                    "type": "address"
                },
                {
                    "internalType": "uint256",
                    "name": "bondTokenAmount",
                    "type": "uint256"
                },
                {
                    "internalType": "uint256",
                    "name": "liveness",
                    "type": "uint256"
                },
                {
                    "internalType": "bytes",
                    "name": "data",
                    "type": "bytes"
                },
                {
                    "internalType": "address",
                    "name": "gasPaymentToken",
                    "type": "address"
                },
                {
                    "internalType": "uint256",
                    "name": "gasPaymentAmount",
                    "type": "uint256"
                },
                {
                    "internalType": "address",
                    "name": "submitter",
                    "type": "address"
                }
            ],
            "stateMutability": "view",
            "type": "function"
        },
        {
            "inputs": [],
            "name": "settleAndExecuteAction",
            "outputs": [],
            "stateMutability": "nonpayable",
            "type": "function"
        },
        {
            "inputs": [],
            "name": "taskTreasury",
            "outputs": [
                {
                    "internalType": "contract ITaskTreasuryUpgradable",
                    "name": "",
                    "type": "address"
                }
            ],
            "stateMutability": "view",
            "type": "function"
        },
        {
            "inputs": [
                {
                    "internalType": "uint256",
                    "name": "_amount",
                    "type": "uint256"
                },
                {
                    "internalType": "address",
                    "name": "_token",
                    "type": "address"
                }
            ],
            "name": "withdrawFunds",
            "outputs": [],
            "stateMutability": "nonpayable",
            "type": "function"
        }
    ],
    "bytecode": "0x6101406040818152346200028f5773c1c6805b857bef1f412519c4a842522431afed39908160805263573ea57560e01b83526020928381600481865afa908115620002e3579084916000916200029c575b5082516331056e5760e21b81526001600160a01b039290918290600490829086165afa90811562000205576000916200025a575b5060c05281516337b6269f60e21b8152306004820152828160248173c815db16d4be6ddf2685c201937905abf338f5d75afa908115620002055760009162000210575b5060a0523060e052600484826080511684519283809263e60a321360e01b82525afa9485156200020557600095620001bc575b50505061010092835261012091739923d42ef695b5dd9911d05ac944d4caca3c4eab835260018060a01b031960005416176000555190613dc292836200033e8439608051838181610ca501528181611abe01526122f0015260a051838181611cdd01526121bc015260c051838181611b250152611bbc015260e051838181611e030152611f960152518281816101000152611e2e0152518181816108dc015281816109a001528181610a9001528181610eb7015281816116dd015261222c0152f35b8181969394963d8311620001fd575b620001d78183620002ee565b81010312620001f957519182168203620001f6575091388080620000fa565b80fd5b5080fd5b503d620001cb565b83513d6000823e3d90fd5b908382813d831162000252575b620002298183620002ee565b81010312620001f657856200023e8362000328565b92015180151503620001f6575038620000c7565b503d6200021d565b90508481813d831162000294575b620002748183620002ee565b810103126200028f57620002889062000328565b3862000084565b600080fd5b503d62000268565b909181813d8311620002db575b620002b58183620002ee565b81010312620001f95751906001600160a01b0382168203620001f6575083903862000050565b503d620002a9565b82513d6000823e3d90fd5b601f909101601f19168101906001600160401b038211908210176200031257604052565b634e487b7160e01b600052604160045260246000fd5b51906001600160a01b03821682036200028f5756fe60a080604052600436101561001357600080fd5b60006080526080513560e01c908163011e11671461231457508063049aacfe146122a45780630c311c301461225057806321d06bfd146121e057806328f150eb14612170578063338cdca114611fba57806346ee3c5914611f4a578063744bfe6114611db35780639ea6eed51461165a578063b1a20be314610365578063ba73272e1461026b578063c45469001461012a5763e60a3213146100b457600080fd5b34610124576080517ffffffffffffffffffffffffffffffffffffffffffffffffffffffffffffffffc36011261012457602060405173ffffffffffffffffffffffffffffffffffffffff7f0000000000000000000000000000000000000000000000000000000000000000168152f35b60805180fd5b346101245760807ffffffffffffffffffffffffffffffffffffffffffffffffffffffffffffffffc3601126101245760043573ffffffffffffffffffffffffffffffffffffffff9081811680910361026657610184612549565b90604435908382168092036102665760643567ffffffffffffffff811161012457366023820112156101245790846101c785933690602481600401359101612654565b60405194859260209560a085019587860152166040840152606083015260808083015280518093528360c083019101926080515b8582821061024f575050506102379250037fffffffffffffffffffffffffffffffffffffffffffffffffffffffffffffffe081018452836124a2565b61024b604051928284938452830190612506565b0390f35b8551845294850194879450909201916001016101fb565b600080fd5b346101245760e07ffffffffffffffffffffffffffffffffffffffffffffffffffffffffffffffffc3601126101245767ffffffffffffffff600435818111610124576102bb90369060040161256c565b602435838111610124576102d390369060040161259a565b939092604435828111610124576102ee90369060040161259a565b91909260843590811161012457366023820112156101245761031a903690602481600401359101612605565b9160a4359373ffffffffffffffffffffffffffffffffffffffff851685036102665761024b976103519760c43597606435956127cd565b604051918291602083526020830190612506565b6101207ffffffffffffffffffffffffffffffffffffffffffffffffffffffffffffffffc3601126101245760043567ffffffffffffffff8111610124576103b090369060040161256c565b9060243567ffffffffffffffff8111610124576103d190369060040161259a565b909160443567ffffffffffffffff8111610124576103f390369060040161259a565b94909173ffffffffffffffffffffffffffffffffffffffff60643516606435036102665760c4359573ffffffffffffffffffffffffffffffffffffffff871687036102665767ffffffffffffffff61010435116101245761045a366101043560040161256c565b6040517f23b872dd000000000000000000000000000000000000000000000000000000008152336004820152306024820152608435604482015291969095916020818060648101038160805173ffffffffffffffffffffffffffffffffffffffff606435165af18015610d135761163b575b5073ffffffffffffffffffffffffffffffffffffffff891673eeeeeeeeeeeeeeeeeeeeeeeeeeeeeeeeeeeeeeee036115ab5760e435340361154d575b6040518061018081011067ffffffffffffffff61018083011117610dd157610180810160405260805181526080516020820152610546368787612605565b60408201526105548261263c565b61056160405191826124a2565b82815260208101368460051b8c0111610124578a905b8460051b8c01821061150c5750506060820152610595368585612654565b608082015273ffffffffffffffffffffffffffffffffffffffff6064351660a082015260843560c082015260a43560e08201526105d336888a612605565b61010082015273ffffffffffffffffffffffffffffffffffffffff8a1661012082015260e4356101408201523361016082015280516001556020810151600255604081015180519067ffffffffffffffff821161110157610635600354612360565b601f81116114bd575b506020906001601f8411146113d75791809161068f93608051926113cc575b50507fffffffffffffffffffffffffffffffffffffffffffffffffffffffffffffffff8260011b9260031b1c19161790565b6003555b60608101518051906801000000000000000082116111015760045482600455808310611333575b50602001906004608051527f8a35acfbc15ff81a39ae7d344fd709f28e8600b4aa8c65c6b64bfe7fe36bd19b91608051905b82821061119c5750505050608081015180519067ffffffffffffffff8211611101576801000000000000000082116111015760209060055483600555808410611166575b50016005608051526080515b8281106111325750505073ffffffffffffffffffffffffffffffffffffffff60a0820151167fffffffffffffffffffffffff0000000000000000000000000000000000000000600654161760065560c081015160075560e081015160085561010081015180519067ffffffffffffffff8211611101576107bd600954612360565b601f81116110a7575b506020906001601f841114610faa57826101609373ffffffffffffffffffffffffffffffffffffffff959361082f9360805192610f9f5750507fffffffffffffffffffffffffffffffffffffffffffffffffffffffffffffffff8260011b9260031b1c19161790565b6009555b82610120820151167fffffffffffffffffffffffff0000000000000000000000000000000000000000600a541617600a55610140810151600b550151167fffffffffffffffffffffffff0000000000000000000000000000000000000000600c541617600c556040517fdd62ed3e00000000000000000000000000000000000000000000000000000000815230600482015273ffffffffffffffffffffffffffffffffffffffff7f000000000000000000000000000000000000000000000000000000000000000016602482015260208160448173ffffffffffffffffffffffffffffffffffffffff606435165afa908115610d135760805191610f6d575b5060843511610e79575b61095c9761095260843598606435983691612605565b9560a435956127cd565b604051907fd509b01700000000000000000000000000000000000000000000000000000000825260208260048173ffffffffffffffffffffffffffffffffffffffff7f0000000000000000000000000000000000000000000000000000000000000000165afa918215610d135760805192610e43575b50610a1760209160405193849283927f6457c9790000000000000000000000000000000000000000000000000000000084526101206004850152610124840190612506565b903060248401526080516044840152608051606484015267ffffffffffffffff60a43516608484015273ffffffffffffffffffffffffffffffffffffffff6064351660a484015260843560c484015260e4830152608051610104830152038160805173ffffffffffffffffffffffffffffffffffffffff7f0000000000000000000000000000000000000000000000000000000000000000165af1908115610d135760805191610e11575b5060025560405190610ad382612486565b600182526020368184013760405190610aeb82612486565b6001825260005b60208110610e005750604051926040840184811067ffffffffffffffff821117610dd157600391610b2f916040528086526020860194855261270d565b52604051602081019080821067ffffffffffffffff831117610dd15792610b6f610be79486936040526080518152825190610b698261270d565b5261270d565b50604051917f9ea6eed500000000000000000000000000000000000000000000000000000000602084015260208352610ba783612486565b6040519485937f3323b467000000000000000000000000000000000000000000000000000000008552306004860152608060248601526084850190612506565b917ffffffffffffffffffffffffffffffffffffffffffffffffffffffffffffffffc84840301604485015260408301915191604084528251809152602060608501930190608051905b808210610d715750505051916020818303910152815180825260208201916020808360051b830101940192608051915b838310610d205786602081808973ffffffffffffffffffffffffffffffffffffffff8d166064830152038160805173ffffffffffffffffffffffffffffffffffffffff7f0000000000000000000000000000000000000000000000000000000000000000165af1908115610d135760805191610ce1575b5060015560805180f35b90506020813d602011610d0b575b81610cfc602093836124a2565b81010312610266575181610cd7565b3d9150610cef565b6040513d608051823e3d90fd5b91939695509193602080610d5e837fffffffffffffffffffffffffffffffffffffffffffffffffffffffffffffffe086600196030187528a51612506565b9801930193019092879596949293610c60565b9180959796509390929351906004821015610da057602081600193829352019501920187959694939291610c30565b7f4e487b71000000000000000000000000000000000000000000000000000000006080515260216004526024608051fd5b7f4e487b7100000000000000000000000000000000000000000000000000000000600052604160045260246000fd5b806060602080938601015201610af2565b90506020813d602011610e3b575b81610e2c602093836124a2565b81010312610266575182610ac2565b3d9150610e1f565b9091506020813d602011610e71575b81610e5f602093836124a2565b81010312610266575190610a176109d2565b3d9150610e52565b604051977f095ea7b300000000000000000000000000000000000000000000000000000000895273ffffffffffffffffffffffffffffffffffffffff7f00000000000000000000000000000000000000000000000000000000000000001660048a01527fffffffffffffffffffffffffffffffffffffffffffffffffffffffffffffffff60248a015260208960448160805173ffffffffffffffffffffffffffffffffffffffff606435165af1988915610d135761095c99610f3e575b50975061093c565b610f5f9060203d602011610f66575b610f5781836124a2565b8101906126a2565b508a610f36565b503d610f4d565b90506020813d602011610f97575b81610f88602093836124a2565b8101031261012457518a610932565b3d9150610f7b565b015190508f8061065d565b906009608051527f6e1540171b6c0c960b71a7020d9f60077f6af931a8bbf590da0223dacf75c7af916080515b7fffffffffffffffffffffffffffffffffffffffffffffffffffffffffffffffe08516811061108f57509273ffffffffffffffffffffffffffffffffffffffff949260019261016095837fffffffffffffffffffffffffffffffffffffffffffffffffffffffffffffffe0811610611058575b505050811b01600955610833565b01517fffffffffffffffffffffffffffffffffffffffffffffffffffffffffffffffff60f88460031b161c191690558e808061104a565b91926020600181928685015181550194019201610fd7565b6110f19060096000527f6e1540171b6c0c960b71a7020d9f60077f6af931a8bbf590da0223dacf75c7af601f850160051c810191602086106110f7575b601f0160051c01906126f6565b8c6107c6565b90915081906110e4565b7f4e487b71000000000000000000000000000000000000000000000000000000006080515260416004526024608051fd5b60019060208351930192817f036b6384b5eca791c62761152d0c79bb0604c104a5fb6f4eb0703f3154bb3db001550161073c565b61119690847f036b6384b5eca791c62761152d0c79bb0604c104a5fb6f4eb0703f3154bb3db091820191016126f6565b8d610730565b805180519067ffffffffffffffff8211611101576111ba8654612360565b601f8111611301575b506020906001601f841114611234579261121a83600195946020948796608051926112295750507fffffffffffffffffffffffffffffffffffffffffffffffffffffffffffffffff8260011b9260031b1c19161790565b87555b019401910190926106ec565b01519050388061065d565b908660805152602060805120916080515b7fffffffffffffffffffffffffffffffffffffffffffffffffffffffffffffffe0851681106112e957508360209360019693879693837fffffffffffffffffffffffffffffffffffffffffffffffffffffffffffffffe0899616106112b2575b505050811b01875561121d565b01517fffffffffffffffffffffffffffffffffffffffffffffffffffffffffffffffff60f88460031b161c191690553880806112a5565b91926020600181928685015181550194019201611245565b61132d90876000526020600020601f850160051c810191602086106110f757601f0160051c01906126f6565b386111c3565b6004608051527f8a35acfbc15ff81a39ae7d344fd709f28e8600b4aa8c65c6b64bfe7fe36bd19b908382015b818301811061136f5750506106ba565b8061137c60019254612360565b80611389575b500161135f565b601f8111831461139f5750600081555b38611382565b81608051526113be601f602060805120920160051c82018483016126f6565b600082556080519055611399565b015190508d8061065d565b91906003608051527fc2575a0e9e593c00f959f8c92f12db2869c3395a3b0502d05e2516446f71f85b90608051935b7fffffffffffffffffffffffffffffffffffffffffffffffffffffffffffffffe0841685106114a25760019450837fffffffffffffffffffffffffffffffffffffffffffffffffffffffffffffffe081161061146b575b505050811b01600355610693565b01517fffffffffffffffffffffffffffffffffffffffffffffffffffffffffffffffff60f88460031b161c191690558c808061145d565b81810151835560209485019460019093019290910190611406565b6115069060036000527fc2575a0e9e593c00f959f8c92f12db2869c3395a3b0502d05e2516446f71f85b601f850160051c810191602086106110f757601f0160051c01906126f6565b8c61063e565b813567ffffffffffffffff81116101245736818e01601f0112156101245760209161154283928f84369280830135920101612605565b815201910190610577565b60646040517f08c379a000000000000000000000000000000000000000000000000000000000815260206004820152601c60248201527f496e636f727265637420455448207061796d656e7420616d6f756e74000000006044820152fd5b6040517f23b872dd00000000000000000000000000000000000000000000000000000000815233600482015230602482015260e43560448201526080516020908290606490829073ffffffffffffffffffffffffffffffffffffffff8f165af18015610d135761161c575b50610508565b6116349060203d602011610f6657610f5781836124a2565b5089611616565b6116539060203d602011610f6657610f5781836124a2565b50896104cc565b34610124576080517ffffffffffffffffffffffffffffffffffffffffffffffffffffffffffffffffc3601126101245773ffffffffffffffffffffffffffffffffffffffff60025490604051917f8ea2f2ab00000000000000000000000000000000000000000000000000000000835260048301526020918281602481608051867f0000000000000000000000000000000000000000000000000000000000000000165af18015610d1357611d96575b5060405180818460055492838152016005608051527f036b6384b5eca791c62761152d0c79bb0604c104a5fb6f4eb0703f3154bb3db0926080515b87828210611d805750505061175c925003826124a2565b6080518151909182805b838110611d5157505050506040519061178982611782816123b3565b03836124a2565b8151820190608083868401930312610124576117a6858401613805565b906117b360408501613805565b906117c060608601613805565b9460808101519067ffffffffffffffff821161012457019380603f860112156101245787850151906117f18261263c565b916117ff60405193846124a2565b80835260408a84019160051b88010191821161012457908895949392918a6040819901915b838310611d3e575050505061183e8593926118a392612749565b51604051978896879586957f23b872dd0000000000000000000000000000000000000000000000000000000087521691166004850160409194939294606082019573ffffffffffffffffffffffffffffffffffffffff80921683521660208201520152565b03918660805191165af18015610d1357611d21575b508060065416916119268183600c5416946007549060405180809581947fa9059cbb000000000000000000000000000000000000000000000000000000009a8b8452600484016020909392919373ffffffffffffffffffffffffffffffffffffffff60408201951681520152565b0391608051905af18015610d1357611d04575b506080519282608051541633148015611cd9575b611a8f575b600a54831673eeeeeeeeeeeeeeeeeeeeeeeeeeeeeeeeeeeeeeee8103611a095750505061198690600c541691600b546126ba565b908147106119d957608051918291829182915af16119a2613826565b50156119af575b60805180f35b60046040517f1425ea42000000000000000000000000000000000000000000000000000000008152fd5b60246040517fcd786059000000000000000000000000000000000000000000000000000000008152306004820152fd5b8294611a1f611a5795600c541691600b546126ba565b60405193845273ffffffffffffffffffffffffffffffffffffffff909116600484015260248301529092839190829081906044820190565b0391608051905af18015610d1357611a71575b50506119a9565b81611a8792903d10610f6657610f5781836124a2565b508080611a6a565b604080517fb810c6360000000000000000000000000000000000000000000000000000000081529450846004817f000000000000000000000000000000000000000000000000000000000000000087165afa938415610d13576080519060805195611c97575b508381951673eeeeeeeeeeeeeeeeeeeeeeeeeeeeeeeeeeeeeeee8114600014611bb15750608051908190819081907f00000000000000000000000000000000000000000000000000000000000000005af1611b4e613826565b5061195257606482604051907f08c379a00000000000000000000000000000000000000000000000000000000082526004820152601e60248201527f5f7472616e736665723a20455448207472616e73666572206661696c656400006044820152fd5b6040518481018481527f000000000000000000000000000000000000000000000000000000000000000073ffffffffffffffffffffffffffffffffffffffff1660248301526044808301949094529281529091611c3291611c136064826124a2565b60805191608051915190608051865af1611c2b613826565b9083613d16565b805190848215159283611c7e575b505050611c4d5750611952565b602490604051907f5274afe70000000000000000000000000000000000000000000000000000000082526004820152fd5b611c8e93508201810191016126a2565b15868481611c40565b9450506040843d604011611cd1575b81611cb3604093836124a2565b81010312610124578184519401519383851685036101245785611af5565b3d9150611ca6565b50827f000000000000000000000000000000000000000000000000000000000000000016331461194d565b611d1a90823d8411610f6657610f5781836124a2565b5083611939565b611d3790833d8511610f6657610f5781836124a2565b50826118b8565b825181528b985091810191899101611824565b81611d5c8285612749565b5111611d6b575b600101611766565b809450611d79915082612749565b5183611d63565b8554845260019586019587955093019201611745565b611dac90833d8511610f6657610f5781836124a2565b508261170a565b346101245760407ffffffffffffffffffffffffffffffffffffffffffffffffffffffffffffffffc36011261012457611dea612549565b73ffffffffffffffffffffffffffffffffffffffff90817f00000000000000000000000000000000000000000000000000000000000000001691823303611ec657807f00000000000000000000000000000000000000000000000000000000000000001691823b1561012457604051937f1c20fadd000000000000000000000000000000000000000000000000000000008552600485015216602483015260043560448301528160648160805193608051905af18015610d1357611eae5760805180f35b67ffffffffffffffff811161110157604052806119a9565b60846040517f08c379a000000000000000000000000000000000000000000000000000000000815260206004820152602360248201527f4f6e6c792066756e6473206f776e65722063616e20776974686472617720667560448201527f6e647300000000000000000000000000000000000000000000000000000000006064820152fd5b34610124576080517ffffffffffffffffffffffffffffffffffffffffffffffffffffffffffffffffc36011261012457602060405173ffffffffffffffffffffffffffffffffffffffff7f0000000000000000000000000000000000000000000000000000000000000000168152f35b34610124576080517ffffffffffffffffffffffffffffffffffffffffffffffffffffffffffffffffc360112610124576001805490600254916040519060805192826003549461200986612360565b92838352602096876001821691826000146121325750506001146120d3575b50612035925003836124a2565b73ffffffffffffffffffffffffffffffffffffffff6120bd81600654166007546008546040519161207083612069816123b3565b03846124a2565b6120a086600a541698600b5497600c5416986040519c8d9c8d9261014093528d01528060408d01528b0190612506565b9360608a0152608089015260a088015286820360c0880152612506565b9260e08501526101008401526101208301520390f35b8691506003608051527fc2575a0e9e593c00f959f8c92f12db2869c3395a3b0502d05e2516446f71f85b90608051915b85831061211a575050612035935082010187612028565b80548389018501528794508893909201918101612103565b7fffffffffffffffffffffffffffffffffffffffffffffffffffffffffffffff00168582015261203595151560051b85010192508991506120289050565b34610124576080517ffffffffffffffffffffffffffffffffffffffffffffffffffffffffffffffffc36011261012457602060405173ffffffffffffffffffffffffffffffffffffffff7f0000000000000000000000000000000000000000000000000000000000000000168152f35b34610124576080517ffffffffffffffffffffffffffffffffffffffffffffffffffffffffffffffffc36011261012457602060405173ffffffffffffffffffffffffffffffffffffffff7f0000000000000000000000000000000000000000000000000000000000000000168152f35b34610124576080517ffffffffffffffffffffffffffffffffffffffffffffffffffffffffffffffffc36011261012457602073ffffffffffffffffffffffffffffffffffffffff6080515416604051908152f35b34610124576080517ffffffffffffffffffffffffffffffffffffffffffffffffffffffffffffffffc36011261012457602060405173ffffffffffffffffffffffffffffffffffffffff7f0000000000000000000000000000000000000000000000000000000000000000168152f35b34610124576080517ffffffffffffffffffffffffffffffffffffffffffffffffffffffffffffffffc360112610124578073eeeeeeeeeeeeeeeeeeeeeeeeeeeeeeeeeeeeeeee60209252f35b90600182811c921680156123a9575b602083101461237a57565b7f4e487b7100000000000000000000000000000000000000000000000000000000600052602260045260246000fd5b91607f169161236f565b600954600092916123c382612360565b8082529160209060019081811690811561244257506001146123e6575b50505050565b9293945060096000527f6e1540171b6c0c960b71a7020d9f60077f6af931a8bbf590da0223dacf75c7af926000935b85851061242f5750505060209250010190388080806123e0565b8054858501840152938201938101612415565b91505060209495507fffffffffffffffffffffffffffffffffffffffffffffffffffffffffffffff0091509291921683830152151560051b010190388080806123e0565b6040810190811067ffffffffffffffff821117610dd157604052565b90601f7fffffffffffffffffffffffffffffffffffffffffffffffffffffffffffffffe0910116810190811067ffffffffffffffff821117610dd157604052565b60005b8381106124f65750506000910152565b81810151838201526020016124e6565b907fffffffffffffffffffffffffffffffffffffffffffffffffffffffffffffffe0601f602093612542815180928187528780880191016124e3565b0116010190565b6024359073ffffffffffffffffffffffffffffffffffffffff8216820361026657565b9181601f840112156102665782359167ffffffffffffffff8311610266576020838186019501011161026657565b9181601f840112156102665782359167ffffffffffffffff8311610266576020808501948460051b01011161026657565b67ffffffffffffffff8111610dd157601f017fffffffffffffffffffffffffffffffffffffffffffffffffffffffffffffffe01660200190565b929192612611826125cb565b9161261f60405193846124a2565b829481845281830111610266578281602093846000960137010152565b67ffffffffffffffff8111610dd15760051b60200190565b929161265f8261263c565b9161266d60405193846124a2565b829481845260208094019160051b810192831161026657905b8282106126935750505050565b81358152908301908301612686565b90816020910312610266575180151581036102665790565b919082039182116126c757565b7f4e487b7100000000000000000000000000000000000000000000000000000000600052601160045260246000fd5b818110612701575050565b600081556001016126f6565b80511561271a5760200190565b7f4e487b7100000000000000000000000000000000000000000000000000000000600052603260045260246000fd5b805182101561271a5760209160051b010190565b919081101561271a5760051b810135907fffffffffffffffffffffffffffffffffffffffffffffffffffffffffffffffe18136030182121561026657019081359167ffffffffffffffff8311610266576020018236038113610266579190565b919081101561271a5760051b0190565b97969998909493959884840361367e5760009760005b86811061365f57506127f48661263c565b966040996128048b51998a6124a2565b8789527fffffffffffffffffffffffffffffffffffffffffffffffffffffffffffffffe06128318961263c565b018960005b82811061364d5750505060005b8881106135a5575050895181819260209d8e84017f536e617073686f742070726f706f73616c20697320617661696c61626c65206190528d84017f7420270000000000000000000000000000000000000000000000000000000000905260438401378101604381017f272c20697320696e2027436c6f7365642720737461746520616e6420686173209052606381017f74686520666f6c6c6f77696e6720726573756c747320696e207468652070726f9052608381017f706f73616c20666f7220616c6c206f7074696f6e7320696e2065786163742073905260a381017f616d65206f726465723a20000000000000000000000000000000000000000000905203608e8101825260ae0161295790826124a2565b9a60009b5b7fffffffffffffffffffffffffffffffffffffffffffffffffffffffffffffffff87018781116126c7578d1015612ac657612a48612abe60308f938f8f8f908f918f8f938f7f20280000000000000000000000000000000000000000000000000000000000009287612a338e60019f612a2781612a1f612a2d937f292c2000000000000000000000000000000000000000000000000000000000009e7f272073636f72696e6720000000000000000000000000000000000000000000009a61275d565b97909b6127bd565b35613999565b95612749565b5196519c8d8b83829d519485930191016124e3565b89017f27000000000000000000000000000000000000000000000000000000000000008982015281602196878301370193840152602b92612a91825180938987850191016124e3565b0191820152612aab602d94835193849187850191016124e3565b01918201520360108101845201826124a2565b9c019b61295c565b95919998939c949097929b507fffffffffffffffffffffffffffffffffffffffffffffffffffffffffffffffff8201908282116126c757612a2782612b1281612b2096612b1a9561275d565b9a90976127bd565b92612749565b5190858a89519788957f270000000000000000000000000000000000000000000000000000000000000083612b5e818a019b8c8151938492016124e3565b8801938401526021830137017f272073636f72696e6720000000000000000000000000000000000000000000006021820152612ba3825180938d602b850191016124e3565b017f2028000000000000000000000000000000000000000000000000000000000000602b820152612bdd825180938c602d850191016124e3565b017f292e200000000000000000000000000000000000000000000000000000000000602d8201520392612c1b603060109560108101845201826124a2565b815190928391156134da5750508451612c3381612486565b600290600281527f307800000000000000000000000000000000000000000000000000000000000089820152938251916000935b8385106133a25750505050506088612d709185519381612c9086935180928c80870191016124e3565b82017f546865204a534f4e206f626a65637420696e207468652070726f706f73616c208a8201527f626f647920636f6e7461696e7320276461746127206669656c64207768696368888201527f20657861636c79206d6174636865732074686520666f6c6c6f77696e6720766160608201527f6c75653a202700000000000000000000000000000000000000000000000000006080820152612d3b825180938c6086850191016124e3565b017f272e00000000000000000000000000000000000000000000000000000000000060868201520360688101845201826124a2565b925b612d7b30613a0e565b90612d8e612d8830613a0e565b93613b3a565b612d9746613b3a565b9073ffffffffffffffffffffffffffffffffffffffff612db684613a0e565b9316938651947f95d89b41000000000000000000000000000000000000000000000000000000008652600086600481845afa95861561331457908a9160009761331f575b50906004918951928380927f313ce5670000000000000000000000000000000000000000000000000000000082525afa908115613314576000916132d6575b50612e4a908a9b9c9a98999a6139c0565b9780519a8a8c82819d5193849201920191612e64926124e3565b8a01908882017f20546865204a534f4e206f626a65637420696e207468652070726f706f73616c905281017f20626f647920636f6e7461696e7320276578656375746f7227206669656c64209052606081017f776869636820657861636c79206d61746368657320666f6c6c6f77696e6720769052608081017f616c75653a2027000000000000000000000000000000000000000000000000009052815191828960878401920191612f15926124e3565b7f272e205468697320554d41207175657279206964656e74696669657220697320608792909101918201527f73657420746f20274153534552545f5452555448272c2063616c6c6261636b2060a78201527f726563657069656e7420616e6420657363616c6174696f6e206d616e6167657260c78201527f2073657420746f207a65726f206164647265737320283078303030303030303060e78201527f303030303030303030303030303030303030303030303030303030303030303061010782018190527f292c20646f6d61696e2069642073657420746f206279746573333228302920286101278301527f30783030303030303030303030303030303030303030303030303030303030306101478301526101678201527f3030292c2061737365727465722073657420746f202700000000000000000000610187820152855161019d96909190613070908390898401908b016124e3565b019485017f272e205468697320554d41207175657279206861732061206c6976656e65737390526101bd85017f206f66200000000000000000000000000000000000000000000000000000000090526101c19481519182888884019201916130d7926124e3565b019384017f207365636f6e64732c206973207375626d6974746564206f6e206120626c6f6390526101e184017f6b636861696e207769746820636861696e20696420000000000000000000000090526101f693815191828787840192019161313e926124e3565b019283017f2c20686173206120626f6e6420746f6b656e2077697468206164647265737320905261021692815191828686840192019161317d926124e3565b019182017f202873796d626f6c200000000000000000000000000000000000000000000000905261021f9181519182858584019201916131bc926124e3565b019081017f2920616e642074686520626f6e6420746f6b656e20616d6f756e742069732000905261023e92805180938584019201916131fa926124e3565b7f206173206465636c6172656420696e20746865204a534f4e206f626a656374209101918201527f6f66207468652070726f706f73616c20626f647920696e206669656c6473202761025e8201527f6c6976656e657373272c2027636861696e4964272c2027626f6e64546f6b656e61027e8201527f2720616e642027626f6e64546f6b656e416d6f756e742720726573706563746961029e8201527f76656c792e0000000000000000000000000000000000000000000000000000006102be820152036102a3810182526132d3906102c301826124a2565b90565b8a81813d831161330d575b6132eb81836124a2565b8101031261330957519060ff82168203613306575089612e39565b80fd5b5080fd5b503d6132e1565b88513d6000823e3d90fd5b9150953d8082843e61333181846124a2565b8201918b818403126133095780519067ffffffffffffffff821161339e570182601f8201121561330957805191613367836125cb565b936133748c5195866124a2565b8385528d84840101116133065750916133968c926004948480850191016124e3565b969091612dfa565b8280fd5b90919293958a6133b288846139fd565b5160f81c808b51916133c383612486565b6004918284528484019436863760035b60018111613460575061342b5750508c60019361341493613420938e51958361340588955180928880890191016124e3565b840191518093868401906124e3565b010380845201826124a2565b960193929190612c67565b90866044928e51927fe22e27eb0000000000000000000000000000000000000000000000000000000084528301526024820152fd5b90600f81168a8110156134ac57907f30313233343536373839616263646566000000000000000000000000000000006134a7921a61349e84886139fd565b53841c91613ceb565b6133d3565b6032857f4e487b71000000000000000000000000000000000000000000000000000000006000525260246000fd5b6134f9945061359f9350608d925086519485925180928b8501906124e3565b81017f546865204a534f4e206f626a65637420696e207468652070726f706f73616c20898201527f626f647920646f6573206e6f7420636f6e7461696e2027646174612720666965878201527f6c642c206f722065786163746c79206d61746368657320666f6c6c6f77696e6760608201527f2076616c75653a20273078272e00000000000000000000000000000000000000608082015203606d8101845201826124a2565b92612d72565b6135b0818a8d6127bd565b3590612710918281029281840414901517156126c7578c61363160216135e461ffff6135de88600198613856565b166138a0565b925180937f250000000000000000000000000000000000000000000000000000000000000060209161361e815180928580880191016124e3565b83019182015203858101845201826124a2565b61363b828d612749565b52613646818c612749565b5001612843565b60606020828194010152018a90612836565b9861366b8a888b6127bd565b3581018091116126c757986001016127e3565b50509184604051937f31b313c400000000000000000000000000000000000000000000000000000000855283604486016040600488015252606485019360648160051b87010194826000905b83821061373e5750505050507ffffffffffffffffffffffffffffffffffffffffffffffffffffffffffffffffc8484030160248501528183527f07ffffffffffffffffffffffffffffffffffffffffffffffffffffffffffffff821161026657602092849260051b80928583013701030190fd5b90919293967fffffffffffffffffffffffffffffffffffffffffffffffffffffffffffffff9c89820301845287357fffffffffffffffffffffffffffffffffffffffffffffffffffffffffffffffe1833603018112156102665782018035602080920167ffffffffffffffff821161026657813603811361026657837fffffffffffffffffffffffffffffffffffffffffffffffffffffffffffffffe0601f8480879695879660019a528686013760008482018601520116010199019594019201906136ca565b519073ffffffffffffffffffffffffffffffffffffffff8216820361026657565b3d15613851573d90613837826125cb565b9161384560405193846124a2565b82523d6000602084013e565b606090565b8115613860570490565b7f4e487b7100000000000000000000000000000000000000000000000000000000600052601260045260246000fd5b60ff16604d81116126c757600a0a90565b60648082069104600a82106139245760216138c0612d886132d393613b3a565b9260405193816138da8693518092602080870191016124e3565b82017f2e00000000000000000000000000000000000000000000000000000000000000602082015261391582518093602087850191016124e3565b010360018101845201826124a2565b6022613935612d886132d393613b3a565b92604051938161394f8693518092602080870191016124e3565b82017f2e30000000000000000000000000000000000000000000000000000000000000602082015261398a82518093602087850191016124e3565b010360028101845201826124a2565b670de0b6b3a76400008082069104600a82106139245760216138c0612d886132d393613b3a565b6139db6139d56139cf8461388f565b83613856565b9261388f565b908115613860570690600a82106139245760216138c0612d886132d393613b3a565b90815181101561271a570160200190565b73ffffffffffffffffffffffffffffffffffffffff1680604051916060830183811067ffffffffffffffff821117610dd157604052602a835260208301604036823783511561271a576030905382516001906001101561271a57607860218501536029905b808211613abc575050613a84575090565b604490604051907fe22e27eb000000000000000000000000000000000000000000000000000000008252600482015260146024820152fd5b9091600f8116906010821015613b0c577f3031323334353637383961626364656600000000000000000000000000000000613b06921a613afc85886139fd565b5360041c92613ceb565b90613a73565b602460007f4e487b710000000000000000000000000000000000000000000000000000000081526032600452fd5b806000917a184f03e93ff9f4daa797ed6e38ed64bf6a1f01000000000000000080821015613cdd575b506d04ee2d6d415b85acef810000000080831015613cce575b50662386f26fc1000080831015613cbf575b506305f5e10080831015613cb0575b5061271080831015613ca1575b506064821015613c91575b600a80921015613c87575b60019081602160018601957fffffffffffffffffffffffffffffffffffffffffffffffffffffffffffffffe0613c0e613bf8896125cb565b98613c066040519a8b6124a2565b808a526125cb565b01366020890137860101905b613c26575b5050505090565b7fffffffffffffffffffffffffffffffffffffffffffffffffffffffffffffffff849101917f30313233343536373839616263646566000000000000000000000000000000008282061a835304918215613c8257919082613c1a565b613c1f565b9160010191613bc0565b9190606460029104910191613bb5565b60049193920491019138613baa565b60089193920491019138613b9d565b60109193920491019138613b8e565b60209193920491019138613b7c565b604093508104915038613b63565b80156126c7577fffffffffffffffffffffffffffffffffffffffffffffffffffffffffffffffff0190565b90613d2b57508051156119af57805190602001fd5b81511580613d83575b613d3c575090565b60249073ffffffffffffffffffffffffffffffffffffffff604051917f9996b315000000000000000000000000000000000000000000000000000000008352166004820152fd5b50803b15613d3456fea2646970667358221220335de7adf0bca0d70330323b5be5c7286f64af0f185007e1dfb392985b44630d64736f6c63430008160033",
    "linkReferences": {},
    "deployedLinkReferences": {}
}